{
  "contractName": "Inventory",
  "abi": [
    {
      "inputs": [],
      "stateMutability": "nonpayable",
      "type": "constructor"
    },
    {
      "anonymous": false,
      "inputs": [
        {
          "indexed": true,
          "internalType": "uint256",
          "name": "itemId",
          "type": "uint256"
        },
        {
          "indexed": false,
          "internalType": "string",
          "name": "name",
          "type": "string"
        },
        {
          "indexed": false,
          "internalType": "uint256",
          "name": "stock",
          "type": "uint256"
        },
        {
          "indexed": false,
          "internalType": "uint256",
          "name": "price",
          "type": "uint256"
        }
      ],
      "name": "ItemAdded",
      "type": "event"
    },
    {
      "anonymous": false,
      "inputs": [
        {
          "indexed": true,
          "internalType": "uint256",
          "name": "itemId",
          "type": "uint256"
        },
        {
          "indexed": false,
          "internalType": "address",
          "name": "buyer",
          "type": "address"
        },
        {
          "indexed": false,
          "internalType": "uint256",
          "name": "quantity",
          "type": "uint256"
        }
      ],
      "name": "ItemPurchased",
      "type": "event"
    },
    {
      "anonymous": false,
      "inputs": [
        {
          "indexed": true,
          "internalType": "uint256",
          "name": "itemId",
          "type": "uint256"
        }
      ],
      "name": "ItemRemoved",
      "type": "event"
    },
    {
      "anonymous": false,
      "inputs": [
        {
          "indexed": true,
          "internalType": "uint256",
          "name": "itemId",
          "type": "uint256"
        },
        {
          "indexed": false,
          "internalType": "uint256",
          "name": "stock",
          "type": "uint256"
        },
        {
          "indexed": false,
          "internalType": "uint256",
          "name": "threshold",
          "type": "uint256"
        }
      ],
      "name": "LowStock",
      "type": "event"
    },
    {
      "anonymous": false,
      "inputs": [
        {
          "indexed": true,
          "internalType": "address",
          "name": "by",
          "type": "address"
        }
      ],
      "name": "Paused",
      "type": "event"
    },
    {
      "anonymous": false,
      "inputs": [
        {
          "indexed": true,
          "internalType": "uint256",
          "name": "itemId",
          "type": "uint256"
        },
        {
          "indexed": false,
          "internalType": "uint256",
          "name": "newPrice",
          "type": "uint256"
        }
      ],
      "name": "PriceUpdated",
      "type": "event"
    },
    {
      "anonymous": false,
      "inputs": [
        {
          "indexed": true,
          "internalType": "address",
          "name": "account",
          "type": "address"
        }
      ],
      "name": "StaffAdded",
      "type": "event"
    },
    {
      "anonymous": false,
      "inputs": [
        {
          "indexed": true,
          "internalType": "address",
          "name": "account",
          "type": "address"
        }
      ],
      "name": "StaffRemoved",
      "type": "event"
    },
    {
      "anonymous": false,
      "inputs": [
        {
          "indexed": true,
          "internalType": "uint256",
          "name": "itemId",
          "type": "uint256"
        },
        {
          "indexed": false,
          "internalType": "uint256",
          "name": "newStock",
          "type": "uint256"
        }
      ],
      "name": "StockUpdated",
      "type": "event"
    },
    {
      "anonymous": false,
      "inputs": [
        {
          "indexed": true,
          "internalType": "uint256",
          "name": "itemId",
          "type": "uint256"
        },
        {
          "indexed": false,
          "internalType": "uint256",
          "name": "newThreshold",
          "type": "uint256"
        }
      ],
      "name": "ThresholdUpdated",
      "type": "event"
    },
    {
      "anonymous": false,
      "inputs": [
        {
          "indexed": true,
          "internalType": "address",
          "name": "by",
          "type": "address"
        }
      ],
      "name": "Unpaused",
      "type": "event"
    },
    {
      "anonymous": false,
      "inputs": [
        {
          "indexed": true,
          "internalType": "address",
          "name": "owner",
          "type": "address"
        },
        {
          "indexed": false,
          "internalType": "uint256",
          "name": "amount",
          "type": "uint256"
        }
      ],
      "name": "Withdrawal",
      "type": "event"
    },
    {
      "inputs": [
        {
          "internalType": "uint256",
          "name": "",
          "type": "uint256"
        }
      ],
      "name": "items",
      "outputs": [
        {
          "internalType": "string",
          "name": "name",
          "type": "string"
        },
        {
          "internalType": "uint256",
          "name": "stock",
          "type": "uint256"
        },
        {
          "internalType": "uint256",
          "name": "price",
          "type": "uint256"
        },
        {
          "internalType": "uint256",
          "name": "reorderThreshold",
          "type": "uint256"
        },
        {
          "internalType": "bool",
          "name": "exists",
          "type": "bool"
        }
      ],
      "stateMutability": "view",
      "type": "function",
      "constant": true
    },
    {
      "inputs": [],
      "name": "nextItemId",
      "outputs": [
        {
          "internalType": "uint256",
          "name": "",
          "type": "uint256"
        }
      ],
      "stateMutability": "view",
      "type": "function",
      "constant": true
    },
    {
      "inputs": [],
      "name": "owner",
      "outputs": [
        {
          "internalType": "address",
          "name": "",
          "type": "address"
        }
      ],
      "stateMutability": "view",
      "type": "function",
      "constant": true
    },
    {
      "inputs": [],
      "name": "paused",
      "outputs": [
        {
          "internalType": "bool",
          "name": "",
          "type": "bool"
        }
      ],
      "stateMutability": "view",
      "type": "function",
      "constant": true
    },
    {
      "inputs": [
        {
          "internalType": "address",
          "name": "",
          "type": "address"
        }
      ],
      "name": "staff",
      "outputs": [
        {
          "internalType": "bool",
          "name": "",
          "type": "bool"
        }
      ],
      "stateMutability": "view",
      "type": "function",
      "constant": true
    },
    {
      "inputs": [
        {
          "internalType": "bool",
          "name": "_paused",
          "type": "bool"
        }
      ],
      "name": "setPaused",
      "outputs": [],
      "stateMutability": "nonpayable",
      "type": "function"
    },
    {
      "inputs": [
        {
          "internalType": "address",
          "name": "account",
          "type": "address"
        },
        {
          "internalType": "bool",
          "name": "isStaff",
          "type": "bool"
        }
      ],
      "name": "updateStaff",
      "outputs": [],
      "stateMutability": "nonpayable",
      "type": "function"
    },
    {
      "inputs": [
        {
          "internalType": "string",
          "name": "name",
          "type": "string"
        },
        {
          "internalType": "uint256",
          "name": "initialStock",
          "type": "uint256"
        },
        {
          "internalType": "uint256",
          "name": "price",
          "type": "uint256"
        },
        {
          "internalType": "uint256",
          "name": "reorderThreshold",
          "type": "uint256"
        }
      ],
      "name": "addItem",
      "outputs": [],
      "stateMutability": "nonpayable",
      "type": "function"
    },
    {
      "inputs": [
        {
          "internalType": "uint256",
          "name": "itemId",
          "type": "uint256"
        },
        {
          "internalType": "uint256",
          "name": "amount",
          "type": "uint256"
        }
      ],
      "name": "restock",
      "outputs": [],
      "stateMutability": "nonpayable",
      "type": "function"
    },
    {
      "inputs": [
        {
          "internalType": "uint256",
          "name": "itemId",
          "type": "uint256"
        },
        {
          "internalType": "uint256",
          "name": "newPrice",
          "type": "uint256"
        }
      ],
      "name": "updatePrice",
      "outputs": [],
      "stateMutability": "nonpayable",
      "type": "function"
    },
    {
      "inputs": [
        {
          "internalType": "uint256",
          "name": "itemId",
          "type": "uint256"
        },
        {
          "internalType": "uint256",
          "name": "newThreshold",
          "type": "uint256"
        }
      ],
      "name": "updateThreshold",
      "outputs": [],
      "stateMutability": "nonpayable",
      "type": "function"
    },
    {
      "inputs": [
        {
          "internalType": "uint256",
          "name": "itemId",
          "type": "uint256"
        }
      ],
      "name": "removeItem",
      "outputs": [],
      "stateMutability": "nonpayable",
      "type": "function"
    },
    {
      "inputs": [
        {
          "internalType": "uint256",
          "name": "itemId",
          "type": "uint256"
        },
        {
          "internalType": "uint256",
          "name": "quantity",
          "type": "uint256"
        }
      ],
      "name": "purchase",
      "outputs": [],
      "stateMutability": "payable",
      "type": "function",
      "payable": true
    },
    {
      "inputs": [],
      "name": "withdraw",
      "outputs": [],
      "stateMutability": "nonpayable",
      "type": "function"
    },
    {
      "inputs": [
        {
          "internalType": "uint256",
          "name": "itemId",
          "type": "uint256"
        }
      ],
      "name": "getPurchaseCount",
      "outputs": [
        {
          "internalType": "uint256",
          "name": "",
          "type": "uint256"
        }
      ],
      "stateMutability": "view",
      "type": "function",
      "constant": true
    },
    {
      "inputs": [
        {
          "internalType": "uint256",
          "name": "itemId",
          "type": "uint256"
        },
        {
          "internalType": "uint256",
          "name": "index",
          "type": "uint256"
        }
      ],
      "name": "getPurchase",
      "outputs": [
        {
          "internalType": "address",
          "name": "buyer",
          "type": "address"
        },
        {
          "internalType": "uint256",
          "name": "quantity",
          "type": "uint256"
        },
        {
          "internalType": "uint256",
          "name": "timestamp",
          "type": "uint256"
        }
      ],
      "stateMutability": "view",
      "type": "function",
      "constant": true
    },
    {
      "inputs": [],
      "name": "getAllItems",
      "outputs": [
        {
          "internalType": "uint256[]",
          "name": "ids",
          "type": "uint256[]"
        },
        {
          "internalType": "string[]",
          "name": "names",
          "type": "string[]"
        },
        {
          "internalType": "uint256[]",
          "name": "stocks",
          "type": "uint256[]"
        },
        {
          "internalType": "uint256[]",
          "name": "prices",
          "type": "uint256[]"
        },
        {
          "internalType": "uint256[]",
          "name": "thresholds",
          "type": "uint256[]"
        }
      ],
      "stateMutability": "view",
      "type": "function",
      "constant": true
    }
  ],
  "bytecode": "0x608060405234801561001057600080fd5b50336000806101000a81548173ffffffffffffffffffffffffffffffffffffffff021916908373ffffffffffffffffffffffffffffffffffffffff16021790555060008060146101000a81548160ff0219169083151502179055506128808061007a6000396000f3fe6080604052600436106100fe5760003560e01c80637132917111610095578063bfb231d211610064578063bfb231d21461031a578063d4b308d81461035b578063dc0dd67714610384578063ddd5987f146103ad578063f73bd428146103d6576100fe565b8063713291711461026057806382367b2d146102895780638da5cb5b146102b25780639093bb20146102dd576100fe565b80634f83158a116100d15780634f83158a146101b15780635c975abb146101ee5780636a8689741461021957806370876c9814610244576100fe565b806316c38b3c146101035780633bc701841461012c5780633ccfd60b1461016b5780634ba1d6aa14610182575b600080fd5b34801561010f57600080fd5b5061012a60048036038101906101259190611d9c565b6103ff565b005b34801561013857600080fd5b50610153600480360381019061014e9190611e6e565b61053c565b60405161016293929190612288565b60405180910390f35b34801561017757600080fd5b506101806105da565b005b34801561018e57600080fd5b50610197610788565b6040516101a89594939291906122bf565b60405180910390f35b3480156101bd57600080fd5b506101d860048036038101906101d39190611d37565b610c86565b6040516101e59190612335565b60405180910390f35b3480156101fa57600080fd5b50610203610ca6565b6040516102109190612335565b60405180910390f35b34801561022557600080fd5b5061022e610cb9565b60405161023b91906124ca565b60405180910390f35b61025e60048036038101906102599190611e6e565b610cbf565b005b34801561026c57600080fd5b5061028760048036038101906102829190611e45565b610f8b565b005b34801561029557600080fd5b506102b060048036038101906102ab9190611e6e565b61116d565b005b3480156102be57600080fd5b506102c7611305565b6040516102d49190612244565b60405180910390f35b3480156102e957600080fd5b5061030460048036038101906102ff9190611e45565b611329565b60405161031191906124ca565b60405180910390f35b34801561032657600080fd5b50610341600480360381019061033c9190611e45565b611349565b604051610352959493929190612390565b60405180910390f35b34801561036757600080fd5b50610382600480360381019061037d9190611e6e565b611414565b005b34801561039057600080fd5b506103ab60048036038101906103a69190611dc5565b6115ac565b005b3480156103b957600080fd5b506103d460048036038101906103cf9190611e6e565b6117ca565b005b3480156103e257600080fd5b506103fd60048036038101906103f89190611d60565b6119de565b005b60008054906101000a900473ffffffffffffffffffffffffffffffffffffffff1673ffffffffffffffffffffffffffffffffffffffff163373ffffffffffffffffffffffffffffffffffffffff161461048d576040517f08c379a00000000000000000000000000000000000000000000000000000000081526004016104849061242a565b60405180910390fd5b80600060146101000a81548160ff02191690831515021790555080156104f5573373ffffffffffffffffffffffffffffffffffffffff167f62e78cea01bee320cd4e420270b5ea74000d11b0c9f74754ebdbfc544b05a25860405160405180910390a2610539565b3373ffffffffffffffffffffffffffffffffffffffff167f5db9ee0a495bf2e6ff9c91a7834c1ba4fdd244a5e8aa4e537bd38aeae4b073aa60405160405180910390a25b50565b60008060008060026000878152602001908152602001600020858154811061058d577f4e487b7100000000000000000000000000000000000000000000000000000000600052603260045260246000fd5b906000526020600020906003020190508060000160009054906101000a900473ffffffffffffffffffffffffffffffffffffffff1681600101548260020154935093509350509250925092565b60008054906101000a900473ffffffffffffffffffffffffffffffffffffffff1673ffffffffffffffffffffffffffffffffffffffff163373ffffffffffffffffffffffffffffffffffffffff1614610668576040517f08c379a000000000000000000000000000000000000000000000000000000000815260040161065f9061242a565b60405180910390fd5b6000479050600081116106b0576040517f08c379a00000000000000000000000000000000000000000000000000000000081526004016106a79061246a565b60405180910390fd5b60008054906101000a900473ffffffffffffffffffffffffffffffffffffffff1673ffffffffffffffffffffffffffffffffffffffff166108fc829081150290604051600060405180830381858888f19350505050158015610716573d6000803e3d6000fd5b5060008054906101000a900473ffffffffffffffffffffffffffffffffffffffff1673ffffffffffffffffffffffffffffffffffffffff167f7fcf532c15f0a6db0bd6d0e038bea71d30d808c7d98cb3bf7268a95bf5081b658260405161077d91906124ca565b60405180910390a250565b6060806060806060600060045490506000805b828110156107ee576001600082815260200190815260200160002060040160009054906101000a900460ff16156107db5781806107d79061274d565b9250505b80806107e69061274d565b91505061079b565b508067ffffffffffffffff81111561082f577f4e487b7100000000000000000000000000000000000000000000000000000000600052604160045260246000fd5b60405190808252806020026020018201604052801561085d5781602001602082028036833780820191505090505b5096508067ffffffffffffffff8111156108a0577f4e487b7100000000000000000000000000000000000000000000000000000000600052604160045260246000fd5b6040519080825280602002602001820160405280156108d357816020015b60608152602001906001900390816108be5790505b5095508067ffffffffffffffff811115610916577f4e487b7100000000000000000000000000000000000000000000000000000000600052604160045260246000fd5b6040519080825280602002602001820160405280156109445781602001602082028036833780820191505090505b5094508067ffffffffffffffff811115610987577f4e487b7100000000000000000000000000000000000000000000000000000000600052604160045260246000fd5b6040519080825280602002602001820160405280156109b55781602001602082028036833780820191505090505b5093508067ffffffffffffffff8111156109f8577f4e487b7100000000000000000000000000000000000000000000000000000000600052604160045260246000fd5b604051908082528060200260200182016040528015610a265781602001602082028036833780820191505090505b5092506000805b83811015610c7b5760006001600083815260200190815260200160002090508060040160009054906101000a900460ff1615610c6757818a8481518110610a9d577f4e487b7100000000000000000000000000000000000000000000000000000000600052603260045260246000fd5b602002602001018181525050806000018054610ab89061271b565b80601f0160208091040260200160405190810160405280929190818152602001828054610ae49061271b565b8015610b315780601f10610b0657610100808354040283529160200191610b31565b820191906000526020600020905b815481529060010190602001808311610b1457829003601f168201915b5050505050898481518110610b6f577f4e487b7100000000000000000000000000000000000000000000000000000000600052603260045260246000fd5b60200260200101819052508060010154888481518110610bb8577f4e487b7100000000000000000000000000000000000000000000000000000000600052603260045260246000fd5b6020026020010181815250508060020154878481518110610c02577f4e487b7100000000000000000000000000000000000000000000000000000000600052603260045260246000fd5b6020026020010181815250508060030154868481518110610c4c577f4e487b7100000000000000000000000000000000000000000000000000000000600052603260045260246000fd5b6020026020010181815250508280610c639061274d565b9350505b508080610c739061274d565b915050610a2d565b505050509091929394565b60036020528060005260406000206000915054906101000a900460ff1681565b600060149054906101000a900460ff1681565b60045481565b600060149054906101000a900460ff1615610d0f576040517f08c379a0000000000000000000000000000000000000000000000000000000008152600401610d069061248a565b60405180910390fd5b60006001600084815260200190815260200160002090508060040160009054906101000a900460ff16610d77576040517f08c379a0000000000000000000000000000000000000000000000000000000008152600401610d6e9061244a565b60405180910390fd5b8181600101541015610dbe576040517f08c379a0000000000000000000000000000000000000000000000000000000008152600401610db59061240a565b60405180910390fd5b6000828260020154610dd09190612603565b9050803414610e14576040517f08c379a0000000000000000000000000000000000000000000000000000000008152600401610e0b906123ea565b60405180910390fd5b82826001016000828254610e28919061265d565b925050819055506002600085815260200190815260200160002060405180606001604052803373ffffffffffffffffffffffffffffffffffffffff16815260200185815260200142815250908060018154018082558091505060019003906000526020600020906003020160009091909190915060008201518160000160006101000a81548173ffffffffffffffffffffffffffffffffffffffff021916908373ffffffffffffffffffffffffffffffffffffffff16021790555060208201518160010155604082015181600201555050837f78a0660bbda86d17037943644187f6f1f73f2f20a3240bf4cf4a56c2a96bcf843385604051610f2b92919061225f565b60405180910390a28160030154826001015411610f8557837f9aae5a64ed48e3ae16799f3439861aee6638c7ddb7e397d516d62bdda850a4f283600101548460030154604051610f7c9291906124e5565b60405180910390a25b50505050565b60008054906101000a900473ffffffffffffffffffffffffffffffffffffffff1673ffffffffffffffffffffffffffffffffffffffff163373ffffffffffffffffffffffffffffffffffffffff1614611019576040517f08c379a00000000000000000000000000000000000000000000000000000000081526004016110109061242a565b60405180910390fd5b600060149054906101000a900460ff1615611069576040517f08c379a00000000000000000000000000000000000000000000000000000000081526004016110609061248a565b60405180910390fd5b6001600082815260200190815260200160002060040160009054906101000a900460ff166110cc576040517f08c379a00000000000000000000000000000000000000000000000000000000081526004016110c39061244a565b60405180910390fd5b60016000828152602001908152602001600020600080820160006110f09190611b59565b6001820160009055600282016000905560038201600090556004820160006101000a81549060ff0219169055505060026000828152602001908152602001600020600061113d9190611b99565b807fa54eda4149a0fb9258911733973ecf1f6762357ed371fc6d1e63123bbce23bed60405160405180910390a250565b60008054906101000a900473ffffffffffffffffffffffffffffffffffffffff1673ffffffffffffffffffffffffffffffffffffffff163373ffffffffffffffffffffffffffffffffffffffff16146111fb576040517f08c379a00000000000000000000000000000000000000000000000000000000081526004016111f29061242a565b60405180910390fd5b600060149054906101000a900460ff161561124b576040517f08c379a00000000000000000000000000000000000000000000000000000000081526004016112429061248a565b60405180910390fd5b6001600083815260200190815260200160002060040160009054906101000a900460ff166112ae576040517f08c379a00000000000000000000000000000000000000000000000000000000081526004016112a59061244a565b60405180910390fd5b806001600084815260200190815260200160002060020181905550817f945c1c4e99aa89f648fbfe3df471b916f719e16d960fcec0737d4d56bd696838826040516112f991906124ca565b60405180910390a25050565b60008054906101000a900473ffffffffffffffffffffffffffffffffffffffff1681565b600060026000838152602001908152602001600020805490509050919050565b600160205280600052604060002060009150905080600001805461136c9061271b565b80601f01602080910402602001604051908101604052809291908181526020018280546113989061271b565b80156113e55780601f106113ba576101008083540402835291602001916113e5565b820191906000526020600020905b8154815290600101906020018083116113c857829003601f168201915b5050505050908060010154908060020154908060030154908060040160009054906101000a900460ff16905085565b60008054906101000a900473ffffffffffffffffffffffffffffffffffffffff1673ffffffffffffffffffffffffffffffffffffffff163373ffffffffffffffffffffffffffffffffffffffff16146114a2576040517f08c379a00000000000000000000000000000000000000000000000000000000081526004016114999061242a565b60405180910390fd5b600060149054906101000a900460ff16156114f2576040517f08c379a00000000000000000000000000000000000000000000000000000000081526004016114e99061248a565b60405180910390fd5b6001600083815260200190815260200160002060040160009054906101000a900460ff16611555576040517f08c379a000000000000000000000000000000000000000000000000000000000815260040161154c9061244a565b60405180910390fd5b806001600084815260200190815260200160002060030181905550817fb06a54caabe58475c86c2bf9df3f2f06dd1213e9e10659c293117fe4893b274b826040516115a091906124ca565b60405180910390a25050565b60008054906101000a900473ffffffffffffffffffffffffffffffffffffffff1673ffffffffffffffffffffffffffffffffffffffff163373ffffffffffffffffffffffffffffffffffffffff161461163a576040517f08c379a00000000000000000000000000000000000000000000000000000000081526004016116319061242a565b60405180910390fd5b600060149054906101000a900460ff161561168a576040517f08c379a00000000000000000000000000000000000000000000000000000000081526004016116819061248a565b60405180910390fd5b6040518060a0016040528086868080601f016020809104026020016040519081016040528093929190818152602001838380828437600081840152601f19601f820116905080830192505050505050508152602001848152602001838152602001828152602001600115158152506001600060045481526020019081526020016000206000820151816000019080519060200190611729929190611bbd565b5060208201518160010155604082015181600201556060820151816003015560808201518160040160006101000a81548160ff0219169083151502179055509050506004547f665e452eb624a7f9bf54abd5d404d4f4da7360a1e40698893fe2cc447a51af9c868686866040516117a39493929190612350565b60405180910390a2600460008154809291906117be9061274d565b91905055505050505050565b60008054906101000a900473ffffffffffffffffffffffffffffffffffffffff1673ffffffffffffffffffffffffffffffffffffffff163373ffffffffffffffffffffffffffffffffffffffff16148061186d5750600360003373ffffffffffffffffffffffffffffffffffffffff1673ffffffffffffffffffffffffffffffffffffffff16815260200190815260200160002060009054906101000a900460ff165b6118ac576040517f08c379a00000000000000000000000000000000000000000000000000000000081526004016118a3906124aa565b60405180910390fd5b600060149054906101000a900460ff16156118fc576040517f08c379a00000000000000000000000000000000000000000000000000000000081526004016118f39061248a565b60405180910390fd5b6001600083815260200190815260200160002060040160009054906101000a900460ff1661195f576040517f08c379a00000000000000000000000000000000000000000000000000000000081526004016119569061244a565b60405180910390fd5b8060016000848152602001908152602001600020600101600082825461198591906125ad565b92505081905550817febcfd4ce21b6aefd071d3e0f4bfa57e491b5308a1ffb5a3a8e4805e23f00b8d760016000858152602001908152602001600020600101546040516119d291906124ca565b60405180910390a25050565b60008054906101000a900473ffffffffffffffffffffffffffffffffffffffff1673ffffffffffffffffffffffffffffffffffffffff163373ffffffffffffffffffffffffffffffffffffffff1614611a6c576040517f08c379a0000000000000000000000000000000000000000000000000000000008152600401611a639061242a565b60405180910390fd5b80600360008473ffffffffffffffffffffffffffffffffffffffff1673ffffffffffffffffffffffffffffffffffffffff16815260200190815260200160002060006101000a81548160ff0219169083151502179055508015611b11578173ffffffffffffffffffffffffffffffffffffffff167fe347a390ffd00a66c2003c5e078472c4c521081907f100a1cc7fe135560641f760405160405180910390a2611b55565b8173ffffffffffffffffffffffffffffffffffffffff167fbe0c9c04c8b745ee47e5f1102a51b7adffc957970fe9242ff6c0793adc748b1e60405160405180910390a25b5050565b508054611b659061271b565b6000825580601f10611b775750611b96565b601f016020900490600052602060002090810190611b959190611c43565b5b50565b5080546000825560030290600052602060002090810190611bba9190611c60565b50565b828054611bc99061271b565b90600052602060002090601f016020900481019282611beb5760008555611c32565b82601f10611c0457805160ff1916838001178555611c32565b82800160010185558215611c32579182015b82811115611c31578251825591602001919060010190611c16565b5b509050611c3f9190611c43565b5090565b5b80821115611c5c576000816000905550600101611c44565b5090565b5b80821115611caa57600080820160006101000a81549073ffffffffffffffffffffffffffffffffffffffff02191690556001820160009055600282016000905550600301611c61565b5090565b600081359050611cbd81612805565b92915050565b600081359050611cd28161281c565b92915050565b60008083601f840112611cea57600080fd5b8235905067ffffffffffffffff811115611d0357600080fd5b602083019150836001820283011115611d1b57600080fd5b9250929050565b600081359050611d3181612833565b92915050565b600060208284031215611d4957600080fd5b6000611d5784828501611cae565b91505092915050565b60008060408385031215611d7357600080fd5b6000611d8185828601611cae565b9250506020611d9285828601611cc3565b9150509250929050565b600060208284031215611dae57600080fd5b6000611dbc84828501611cc3565b91505092915050565b600080600080600060808688031215611ddd57600080fd5b600086013567ffffffffffffffff811115611df757600080fd5b611e0388828901611cd8565b95509550506020611e1688828901611d22565b9350506040611e2788828901611d22565b9250506060611e3888828901611d22565b9150509295509295909350565b600060208284031215611e5757600080fd5b6000611e6584828501611d22565b91505092915050565b60008060408385031215611e8157600080fd5b6000611e8f85828601611d22565b9250506020611ea085828601611d22565b9150509250929050565b6000611eb68383611ff4565b905092915050565b6000611eca8383612226565b60208301905092915050565b611edf81612691565b82525050565b6000611ef08261252e565b611efa8185612569565b935083602082028501611f0c8561250e565b8060005b85811015611f485784840389528151611f298582611eaa565b9450611f348361254f565b925060208a01995050600181019050611f10565b50829750879550505050505092915050565b6000611f6582612539565b611f6f818561257a565b9350611f7a8361251e565b8060005b83811015611fab578151611f928882611ebe565b9750611f9d8361255c565b925050600181019050611f7e565b5085935050505092915050565b611fc1816126a3565b82525050565b6000611fd3838561259c565b9350611fe08385846126d9565b611fe9836127f4565b840190509392505050565b6000611fff82612544565b612009818561258b565b93506120198185602086016126e8565b612022816127f4565b840191505092915050565b600061203882612544565b612042818561259c565b93506120528185602086016126e8565b61205b816127f4565b840191505092915050565b600061207360118361259c565b91507f496e636f7272656374207061796d656e740000000000000000000000000000006000830152602082019050919050565b60006120b360128361259c565b91507f496e73756666696369656e742073746f636b00000000000000000000000000006000830152602082019050919050565b60006120f360098361259c565b91507f4e6f74206f776e657200000000000000000000000000000000000000000000006000830152602082019050919050565b600061213360138361259c565b91507f4974656d20646f6573206e6f74206578697374000000000000000000000000006000830152602082019050919050565b600061217360088361259c565b91507f4e6f2066756e64730000000000000000000000000000000000000000000000006000830152602082019050919050565b60006121b360128361259c565b91507f436f6e74726163742069732070617573656400000000000000000000000000006000830152602082019050919050565b60006121f3600e8361259c565b91507f4e6f7420617574686f72697a65640000000000000000000000000000000000006000830152602082019050919050565b61222f816126cf565b82525050565b61223e816126cf565b82525050565b60006020820190506122596000830184611ed6565b92915050565b60006040820190506122746000830185611ed6565b6122816020830184612235565b9392505050565b600060608201905061229d6000830186611ed6565b6122aa6020830185612235565b6122b76040830184612235565b949350505050565b600060a08201905081810360008301526122d98188611f5a565b905081810360208301526122ed8187611ee5565b905081810360408301526123018186611f5a565b905081810360608301526123158185611f5a565b905081810360808301526123298184611f5a565b90509695505050505050565b600060208201905061234a6000830184611fb8565b92915050565b6000606082019050818103600083015261236b818688611fc7565b905061237a6020830185612235565b6123876040830184612235565b95945050505050565b600060a08201905081810360008301526123aa818861202d565b90506123b96020830187612235565b6123c66040830186612235565b6123d36060830185612235565b6123e06080830184611fb8565b9695505050505050565b6000602082019050818103600083015261240381612066565b9050919050565b60006020820190508181036000830152612423816120a6565b9050919050565b60006020820190508181036000830152612443816120e6565b9050919050565b6000602082019050818103600083015261246381612126565b9050919050565b6000602082019050818103600083015261248381612166565b9050919050565b600060208201905081810360008301526124a3816121a6565b9050919050565b600060208201905081810360008301526124c3816121e6565b9050919050565b60006020820190506124df6000830184612235565b92915050565b60006040820190506124fa6000830185612235565b6125076020830184612235565b9392505050565b6000819050602082019050919050565b6000819050602082019050919050565b600081519050919050565b600081519050919050565b600081519050919050565b6000602082019050919050565b6000602082019050919050565b600082825260208201905092915050565b600082825260208201905092915050565b600082825260208201905092915050565b600082825260208201905092915050565b60006125b8826126cf565b91506125c3836126cf565b9250827fffffffffffffffffffffffffffffffffffffffffffffffffffffffffffffffff038211156125f8576125f7612796565b5b828201905092915050565b600061260e826126cf565b9150612619836126cf565b9250817fffffffffffffffffffffffffffffffffffffffffffffffffffffffffffffffff048311821515161561265257612651612796565b5b828202905092915050565b6000612668826126cf565b9150612673836126cf565b92508282101561268657612685612796565b5b828203905092915050565b600061269c826126af565b9050919050565b60008115159050919050565b600073ffffffffffffffffffffffffffffffffffffffff82169050919050565b6000819050919050565b82818337600083830152505050565b60005b838110156127065780820151818401526020810190506126eb565b83811115612715576000848401525b50505050565b6000600282049050600182168061273357607f821691505b60208210811415612747576127466127c5565b5b50919050565b6000612758826126cf565b91507fffffffffffffffffffffffffffffffffffffffffffffffffffffffffffffffff82141561278b5761278a612796565b5b600182019050919050565b7f4e487b7100000000000000000000000000000000000000000000000000000000600052601160045260246000fd5b7f4e487b7100000000000000000000000000000000000000000000000000000000600052602260045260246000fd5b6000601f19601f8301169050919050565b61280e81612691565b811461281957600080fd5b50565b612825816126a3565b811461283057600080fd5b50565b61283c816126cf565b811461284757600080fd5b5056fea2646970667358221220d228d92598be60cced30457e96787e6573e358785d5ee49c91dac1f6cb238e3664736f6c63430008000033",
  "immutableReferences": {},
  "source": "// SPDX-License-Identifier: MIT\r\npragma solidity ^0.8.0;\r\n\r\n/**\r\n * @title Simple on-chain Inventory with extended features\r\n * @dev Place this file in `contracts/Inventory.sol`\r\n */\r\ncontract Inventory {\r\n    address public owner;\r\n    bool public paused;\r\n\r\n    modifier onlyOwner() {\r\n        require(msg.sender == owner, \"Not owner\");\r\n        _;\r\n    }\r\n    modifier onlyWhenActive() {\r\n        require(!paused, \"Contract is paused\");\r\n        _;\r\n    }\r\n    modifier onlyStaffOrOwner() {\r\n        require(msg.sender == owner || staff[msg.sender], \"Not authorized\");\r\n        _;\r\n    }\r\n\r\n    struct Item {\r\n        string name;\r\n        uint256 stock;\r\n        uint256 price;    // in wei per unit\r\n        uint256 reorderThreshold;\r\n        bool exists;\r\n    }\r\n\r\n    struct Purchase {\r\n        address buyer;\r\n        uint256 quantity;\r\n        uint256 timestamp;\r\n    }\r\n\r\n    mapping(uint256 => Item) public items;\r\n    mapping(uint256 => Purchase[]) private purchaseHistory;\r\n    mapping(address => bool) public staff;\r\n\r\n    uint256 public nextItemId;\r\n\r\n    event ItemAdded(uint256 indexed itemId, string name, uint256 stock, uint256 price);\r\n    event StockUpdated(uint256 indexed itemId, uint256 newStock);\r\n    event PriceUpdated(uint256 indexed itemId, uint256 newPrice);\r\n    event ThresholdUpdated(uint256 indexed itemId, uint256 newThreshold);\r\n    event ItemRemoved(uint256 indexed itemId);\r\n    event ItemPurchased(uint256 indexed itemId, address buyer, uint256 quantity);\r\n    event LowStock(uint256 indexed itemId, uint256 stock, uint256 threshold);\r\n    event Withdrawal(address indexed owner, uint256 amount);\r\n    event Paused(address indexed by);\r\n    event Unpaused(address indexed by);\r\n    event StaffAdded(address indexed account);\r\n    event StaffRemoved(address indexed account);\r\n\r\n    constructor() {\r\n        owner = msg.sender;\r\n        paused = false;\r\n    }\r\n\r\n    function setPaused(bool _paused) external onlyOwner {\r\n        paused = _paused;\r\n        if (_paused) emit Paused(msg.sender);\r\n        else emit Unpaused(msg.sender);\r\n    }\r\n\r\n    function updateStaff(address account, bool isStaff) external onlyOwner {\r\n        staff[account] = isStaff;\r\n        if (isStaff) emit StaffAdded(account);\r\n        else emit StaffRemoved(account);\r\n    }\r\n\r\n    function addItem(\r\n        string calldata name,\r\n        uint256 initialStock,\r\n        uint256 price,\r\n        uint256 reorderThreshold\r\n    ) external onlyOwner onlyWhenActive {\r\n        items[nextItemId] = Item(name, initialStock, price, reorderThreshold, true);\r\n        emit ItemAdded(nextItemId, name, initialStock, price);\r\n        nextItemId++;\r\n    }\r\n\r\n    function restock(uint256 itemId, uint256 amount) external onlyStaffOrOwner onlyWhenActive {\r\n        require(items[itemId].exists, \"Item does not exist\");\r\n        items[itemId].stock += amount;\r\n        emit StockUpdated(itemId, items[itemId].stock);\r\n    }\r\n\r\n    function updatePrice(uint256 itemId, uint256 newPrice) external onlyOwner onlyWhenActive {\r\n        require(items[itemId].exists, \"Item does not exist\");\r\n        items[itemId].price = newPrice;\r\n        emit PriceUpdated(itemId, newPrice);\r\n    }\r\n\r\n    function updateThreshold(uint256 itemId, uint256 newThreshold) external onlyOwner onlyWhenActive {\r\n        require(items[itemId].exists, \"Item does not exist\");\r\n        items[itemId].reorderThreshold = newThreshold;\r\n        emit ThresholdUpdated(itemId, newThreshold);\r\n    }\r\n\r\n    function removeItem(uint256 itemId) external onlyOwner onlyWhenActive {\r\n        require(items[itemId].exists, \"Item does not exist\");\r\n        delete items[itemId];\r\n        delete purchaseHistory[itemId];\r\n        emit ItemRemoved(itemId);\r\n    }\r\n\r\n    function purchase(uint256 itemId, uint256 quantity) external payable onlyWhenActive {\r\n        Item storage it = items[itemId];\r\n        require(it.exists, \"Item does not exist\");\r\n        require(it.stock >= quantity, \"Insufficient stock\");\r\n\r\n        uint256 totalCost = it.price * quantity;\r\n        require(msg.value == totalCost, \"Incorrect payment\");\r\n\r\n        it.stock -= quantity;\r\n        purchaseHistory[itemId].push(Purchase(msg.sender, quantity, block.timestamp));\r\n        emit ItemPurchased(itemId, msg.sender, quantity);\r\n\r\n        if (it.stock <= it.reorderThreshold) {\r\n            emit LowStock(itemId, it.stock, it.reorderThreshold);\r\n        }\r\n    }\r\n\r\n    function withdraw() external onlyOwner {\r\n        uint256 bal = address(this).balance;\r\n        require(bal > 0, \"No funds\");\r\n        payable(owner).transfer(bal);\r\n        emit Withdrawal(owner, bal);\r\n    }\r\n\r\n    function getPurchaseCount(uint256 itemId) external view returns (uint256) {\r\n        return purchaseHistory[itemId].length;\r\n    }\r\n\r\n    function getPurchase(uint256 itemId, uint256 index)\r\n        external\r\n        view\r\n        returns (address buyer, uint256 quantity, uint256 timestamp)\r\n    {\r\n        Purchase storage p = purchaseHistory[itemId][index];\r\n        return (p.buyer, p.quantity, p.timestamp);\r\n    }\r\n\r\n    /// @notice Retrieve all existing items (ids, names, stocks, prices, thresholds)\r\n    function getAllItems()\r\n        external\r\n        view\r\n        returns (\r\n            uint256[] memory ids,\r\n            string[] memory names,\r\n            uint256[] memory stocks,\r\n            uint256[] memory prices,\r\n            uint256[] memory thresholds\r\n        )\r\n    {\r\n        uint total = nextItemId;\r\n        uint count = 0;\r\n        for (uint i = 0; i < total; i++) {\r\n            if (items[i].exists) {\r\n                count++;\r\n            }\r\n        }\r\n\r\n        ids = new uint256[](count);\r\n        names = new string[](count);\r\n        stocks = new uint256[](count);\r\n        prices = new uint256[](count);\r\n        thresholds = new uint256[](count);\r\n\r\n        uint idx = 0;\r\n        for (uint i = 0; i < total; i++) {\r\n            Item storage it = items[i];\r\n            if (it.exists) {\r\n                ids[idx] = i;\r\n                names[idx] = it.name;\r\n                stocks[idx] = it.stock;\r\n                prices[idx] = it.price;\r\n                thresholds[idx] = it.reorderThreshold;\r\n                idx++;\r\n            }\r\n        }\r\n\r\n        return (ids, names, stocks, prices, thresholds);\r\n    }\r\n}",
  "sourcePath": "C:\\DCM\\Inventory\\contracts\\Inventory.sol",
  "compiler": {
    "name": "solc",
    "version": "0.8.0+commit.c7dfd78e.Emscripten.clang"
  },
  "schemaVersion": "3.4.16",
  "updatedAt": "2025-04-20T18:21:43.096Z",
  "networkType": "ethereum",
  "devdoc": {
    "details": "Place this file in `contracts/Inventory.sol`",
    "kind": "dev",
    "methods": {},
    "title": "Simple on-chain Inventory with extended features",
    "version": 1
  },
  "userdoc": {
    "kind": "user",
    "methods": {
      "getAllItems()": {
        "notice": "Retrieve all existing items (ids, names, stocks, prices, thresholds)"
      }
    },
    "version": 1
  }
}