{
  "contractName": "Inventory",
  "abi": [
    {
      "inputs": [],
      "stateMutability": "nonpayable",
      "type": "constructor"
    },
    {
      "anonymous": false,
      "inputs": [
        {
          "indexed": true,
          "internalType": "uint256",
          "name": "itemId",
          "type": "uint256"
        },
        {
          "indexed": false,
          "internalType": "string",
          "name": "name",
          "type": "string"
        },
        {
          "indexed": false,
          "internalType": "uint256",
          "name": "stock",
          "type": "uint256"
        },
        {
          "indexed": false,
          "internalType": "uint256",
          "name": "price",
          "type": "uint256"
        }
      ],
      "name": "ItemAdded",
      "type": "event"
    },
    {
      "anonymous": false,
      "inputs": [
        {
          "indexed": true,
          "internalType": "uint256",
          "name": "itemId",
          "type": "uint256"
        },
        {
          "indexed": false,
          "internalType": "address",
          "name": "buyer",
          "type": "address"
        },
        {
          "indexed": false,
          "internalType": "uint256",
          "name": "quantity",
          "type": "uint256"
        }
      ],
      "name": "ItemPurchased",
      "type": "event"
    },
    {
      "anonymous": false,
      "inputs": [
        {
          "indexed": true,
          "internalType": "uint256",
          "name": "itemId",
          "type": "uint256"
        }
      ],
      "name": "ItemRemoved",
      "type": "event"
    },
    {
      "anonymous": false,
      "inputs": [
        {
          "indexed": true,
          "internalType": "uint256",
          "name": "itemId",
          "type": "uint256"
        },
        {
          "indexed": false,
          "internalType": "uint256",
          "name": "stock",
          "type": "uint256"
        },
        {
          "indexed": false,
          "internalType": "uint256",
          "name": "threshold",
          "type": "uint256"
        }
      ],
      "name": "LowStock",
      "type": "event"
    },
    {
      "anonymous": false,
      "inputs": [
        {
          "indexed": true,
          "internalType": "address",
          "name": "by",
          "type": "address"
        }
      ],
      "name": "Paused",
      "type": "event"
    },
    {
      "anonymous": false,
      "inputs": [
        {
          "indexed": true,
          "internalType": "uint256",
          "name": "itemId",
          "type": "uint256"
        },
        {
          "indexed": false,
          "internalType": "uint256",
          "name": "newPrice",
          "type": "uint256"
        }
      ],
      "name": "PriceUpdated",
      "type": "event"
    },
    {
      "anonymous": false,
      "inputs": [
        {
          "indexed": true,
          "internalType": "address",
          "name": "account",
          "type": "address"
        }
      ],
      "name": "StaffAdded",
      "type": "event"
    },
    {
      "anonymous": false,
      "inputs": [
        {
          "indexed": true,
          "internalType": "address",
          "name": "account",
          "type": "address"
        }
      ],
      "name": "StaffRemoved",
      "type": "event"
    },
    {
      "anonymous": false,
      "inputs": [
        {
          "indexed": true,
          "internalType": "uint256",
          "name": "itemId",
          "type": "uint256"
        },
        {
          "indexed": false,
          "internalType": "uint256",
          "name": "newStock",
          "type": "uint256"
        }
      ],
      "name": "StockUpdated",
      "type": "event"
    },
    {
      "anonymous": false,
      "inputs": [
        {
          "indexed": true,
          "internalType": "uint256",
          "name": "itemId",
          "type": "uint256"
        },
        {
          "indexed": false,
          "internalType": "uint256",
          "name": "newThreshold",
          "type": "uint256"
        }
      ],
      "name": "ThresholdUpdated",
      "type": "event"
    },
    {
      "anonymous": false,
      "inputs": [
        {
          "indexed": true,
          "internalType": "address",
          "name": "by",
          "type": "address"
        }
      ],
      "name": "Unpaused",
      "type": "event"
    },
    {
      "anonymous": false,
      "inputs": [
        {
          "indexed": true,
          "internalType": "address",
          "name": "owner",
          "type": "address"
        },
        {
          "indexed": false,
          "internalType": "uint256",
          "name": "amount",
          "type": "uint256"
        }
      ],
      "name": "Withdrawal",
      "type": "event"
    },
    {
      "inputs": [
        {
          "internalType": "uint256",
          "name": "",
          "type": "uint256"
        }
      ],
      "name": "items",
      "outputs": [
        {
          "internalType": "string",
          "name": "name",
          "type": "string"
        },
        {
          "internalType": "uint256",
          "name": "stock",
          "type": "uint256"
        },
        {
          "internalType": "uint256",
          "name": "price",
          "type": "uint256"
        },
        {
          "internalType": "uint256",
          "name": "reorderThreshold",
          "type": "uint256"
        },
        {
          "internalType": "bool",
          "name": "exists",
          "type": "bool"
        }
      ],
      "stateMutability": "view",
      "type": "function",
      "constant": true
    },
    {
      "inputs": [],
      "name": "nextItemId",
      "outputs": [
        {
          "internalType": "uint256",
          "name": "",
          "type": "uint256"
        }
      ],
      "stateMutability": "view",
      "type": "function",
      "constant": true
    },
    {
      "inputs": [],
      "name": "owner",
      "outputs": [
        {
          "internalType": "address",
          "name": "",
          "type": "address"
        }
      ],
      "stateMutability": "view",
      "type": "function",
      "constant": true
    },
    {
      "inputs": [],
      "name": "paused",
      "outputs": [
        {
          "internalType": "bool",
          "name": "",
          "type": "bool"
        }
      ],
      "stateMutability": "view",
      "type": "function",
      "constant": true
    },
    {
      "inputs": [
        {
          "internalType": "address",
          "name": "",
          "type": "address"
        }
      ],
      "name": "staff",
      "outputs": [
        {
          "internalType": "bool",
          "name": "",
          "type": "bool"
        }
      ],
      "stateMutability": "view",
      "type": "function",
      "constant": true
    },
    {
      "inputs": [
        {
          "internalType": "bool",
          "name": "_paused",
          "type": "bool"
        }
      ],
      "name": "setPaused",
      "outputs": [],
      "stateMutability": "nonpayable",
      "type": "function"
    },
    {
      "inputs": [
        {
          "internalType": "address",
          "name": "account",
          "type": "address"
        },
        {
          "internalType": "bool",
          "name": "isStaff",
          "type": "bool"
        }
      ],
      "name": "updateStaff",
      "outputs": [],
      "stateMutability": "nonpayable",
      "type": "function"
    },
    {
      "inputs": [
        {
          "internalType": "string",
          "name": "name",
          "type": "string"
        },
        {
          "internalType": "uint256",
          "name": "initialStock",
          "type": "uint256"
        },
        {
          "internalType": "uint256",
          "name": "price",
          "type": "uint256"
        },
        {
          "internalType": "uint256",
          "name": "reorderThreshold",
          "type": "uint256"
        }
      ],
      "name": "addItem",
      "outputs": [],
      "stateMutability": "nonpayable",
      "type": "function"
    },
    {
      "inputs": [
        {
          "internalType": "uint256",
          "name": "itemId",
          "type": "uint256"
        },
        {
          "internalType": "uint256",
          "name": "amount",
          "type": "uint256"
        }
      ],
      "name": "restock",
      "outputs": [],
      "stateMutability": "nonpayable",
      "type": "function"
    },
    {
      "inputs": [
        {
          "internalType": "uint256",
          "name": "itemId",
          "type": "uint256"
        },
        {
          "internalType": "uint256",
          "name": "newPrice",
          "type": "uint256"
        }
      ],
      "name": "updatePrice",
      "outputs": [],
      "stateMutability": "nonpayable",
      "type": "function"
    },
    {
      "inputs": [
        {
          "internalType": "uint256",
          "name": "itemId",
          "type": "uint256"
        },
        {
          "internalType": "uint256",
          "name": "newThreshold",
          "type": "uint256"
        }
      ],
      "name": "updateThreshold",
      "outputs": [],
      "stateMutability": "nonpayable",
      "type": "function"
    },
    {
      "inputs": [
        {
          "internalType": "uint256",
          "name": "itemId",
          "type": "uint256"
        }
      ],
      "name": "removeItem",
      "outputs": [],
      "stateMutability": "nonpayable",
      "type": "function"
    },
    {
      "inputs": [
        {
          "internalType": "uint256",
          "name": "itemId",
          "type": "uint256"
        },
        {
          "internalType": "uint256",
          "name": "quantity",
          "type": "uint256"
        }
      ],
      "name": "purchase",
      "outputs": [],
      "stateMutability": "payable",
      "type": "function",
      "payable": true
    },
    {
      "inputs": [],
      "name": "withdraw",
      "outputs": [],
      "stateMutability": "nonpayable",
      "type": "function"
    },
    {
      "inputs": [
        {
          "internalType": "uint256",
          "name": "itemId",
          "type": "uint256"
        }
      ],
      "name": "getPurchaseCount",
      "outputs": [
        {
          "internalType": "uint256",
          "name": "",
          "type": "uint256"
        }
      ],
      "stateMutability": "view",
      "type": "function",
      "constant": true
    },
    {
      "inputs": [
        {
          "internalType": "uint256",
          "name": "itemId",
          "type": "uint256"
        },
        {
          "internalType": "uint256",
          "name": "index",
          "type": "uint256"
        }
      ],
      "name": "getPurchase",
      "outputs": [
        {
          "internalType": "address",
          "name": "buyer",
          "type": "address"
        },
        {
          "internalType": "uint256",
          "name": "quantity",
          "type": "uint256"
        },
        {
          "internalType": "uint256",
          "name": "timestamp",
          "type": "uint256"
        }
      ],
      "stateMutability": "view",
      "type": "function",
      "constant": true
    },
    {
      "inputs": [],
      "name": "getAllItems",
      "outputs": [
        {
          "internalType": "uint256[]",
          "name": "ids",
          "type": "uint256[]"
        },
        {
          "internalType": "string[]",
          "name": "names",
          "type": "string[]"
        },
        {
          "internalType": "uint256[]",
          "name": "stocks",
          "type": "uint256[]"
        },
        {
          "internalType": "uint256[]",
          "name": "prices",
          "type": "uint256[]"
        },
        {
          "internalType": "uint256[]",
          "name": "thresholds",
          "type": "uint256[]"
        }
      ],
      "stateMutability": "view",
      "type": "function",
      "constant": true
    },
    {
      "inputs": [
        {
          "internalType": "uint256",
          "name": "itemId",
          "type": "uint256"
        },
        {
          "internalType": "uint256",
          "name": "index",
          "type": "uint256"
        }
      ],
      "name": "verifyTransaction",
      "outputs": [
        {
          "internalType": "address",
          "name": "buyer",
          "type": "address"
        },
        {
          "internalType": "uint256",
          "name": "quantity",
          "type": "uint256"
        },
        {
          "internalType": "uint256",
          "name": "timestamp",
          "type": "uint256"
        }
      ],
      "stateMutability": "view",
      "type": "function",
      "constant": true
    }
  ],
  "bytecode": "0x608060405234801561001057600080fd5b50336000806101000a81548173ffffffffffffffffffffffffffffffffffffffff021916908373ffffffffffffffffffffffffffffffffffffffff16021790555060008060146101000a81548160ff021916908315150217905550612b138061007a6000396000f3fe6080604052600436106101095760003560e01c80637132917111610095578063bfb231d211610064578063bfb231d214610364578063d4b308d8146103a5578063dc0dd677146103ce578063ddd5987f146103f7578063f73bd4281461042057610109565b806371329171146102aa57806382367b2d146102d35780638da5cb5b146102fc5780639093bb201461032757610109565b80634f83158a116100dc5780634f83158a146101bc5780635c975abb146101f9578063663deb6f146102245780636a8689741461026357806370876c981461028e57610109565b806316c38b3c1461010e5780633bc70184146101375780633ccfd60b146101765780634ba1d6aa1461018d575b600080fd5b34801561011a57600080fd5b5061013560048036038101906101309190611fcf565b610449565b005b34801561014357600080fd5b5061015e600480360381019061015991906120a1565b610586565b60405161016d939291906124fb565b60405180910390f35b34801561018257600080fd5b5061018b610624565b005b34801561019957600080fd5b506101a26107d2565b6040516101b3959493929190612532565b60405180910390f35b3480156101c857600080fd5b506101e360048036038101906101de9190611f6a565b610cd0565b6040516101f091906125a8565b60405180910390f35b34801561020557600080fd5b5061020e610cf0565b60405161021b91906125a8565b60405180910390f35b34801561023057600080fd5b5061024b600480360381019061024691906120a1565b610d03565b60405161025a939291906124fb565b60405180910390f35b34801561026f57600080fd5b50610278610eec565b604051610285919061275d565b60405180910390f35b6102a860048036038101906102a391906120a1565b610ef2565b005b3480156102b657600080fd5b506102d160048036038101906102cc9190612078565b6111be565b005b3480156102df57600080fd5b506102fa60048036038101906102f591906120a1565b6113a0565b005b34801561030857600080fd5b50610311611538565b60405161031e91906124b7565b60405180910390f35b34801561033357600080fd5b5061034e60048036038101906103499190612078565b61155c565b60405161035b919061275d565b60405180910390f35b34801561037057600080fd5b5061038b60048036038101906103869190612078565b61157c565b60405161039c959493929190612603565b60405180910390f35b3480156103b157600080fd5b506103cc60048036038101906103c791906120a1565b611647565b005b3480156103da57600080fd5b506103f560048036038101906103f09190611ff8565b6117df565b005b34801561040357600080fd5b5061041e600480360381019061041991906120a1565b6119fd565b005b34801561042c57600080fd5b5061044760048036038101906104429190611f93565b611c11565b005b60008054906101000a900473ffffffffffffffffffffffffffffffffffffffff1673ffffffffffffffffffffffffffffffffffffffff163373ffffffffffffffffffffffffffffffffffffffff16146104d7576040517f08c379a00000000000000000000000000000000000000000000000000000000081526004016104ce906126bd565b60405180910390fd5b80600060146101000a81548160ff021916908315150217905550801561053f573373ffffffffffffffffffffffffffffffffffffffff167f62e78cea01bee320cd4e420270b5ea74000d11b0c9f74754ebdbfc544b05a25860405160405180910390a2610583565b3373ffffffffffffffffffffffffffffffffffffffff167f5db9ee0a495bf2e6ff9c91a7834c1ba4fdd244a5e8aa4e537bd38aeae4b073aa60405160405180910390a25b50565b6000806000806002600087815260200190815260200160002085815481106105d7577f4e487b7100000000000000000000000000000000000000000000000000000000600052603260045260246000fd5b906000526020600020906003020190508060000160009054906101000a900473ffffffffffffffffffffffffffffffffffffffff1681600101548260020154935093509350509250925092565b60008054906101000a900473ffffffffffffffffffffffffffffffffffffffff1673ffffffffffffffffffffffffffffffffffffffff163373ffffffffffffffffffffffffffffffffffffffff16146106b2576040517f08c379a00000000000000000000000000000000000000000000000000000000081526004016106a9906126bd565b60405180910390fd5b6000479050600081116106fa576040517f08c379a00000000000000000000000000000000000000000000000000000000081526004016106f1906126fd565b60405180910390fd5b60008054906101000a900473ffffffffffffffffffffffffffffffffffffffff1673ffffffffffffffffffffffffffffffffffffffff166108fc829081150290604051600060405180830381858888f19350505050158015610760573d6000803e3d6000fd5b5060008054906101000a900473ffffffffffffffffffffffffffffffffffffffff1673ffffffffffffffffffffffffffffffffffffffff167f7fcf532c15f0a6db0bd6d0e038bea71d30d808c7d98cb3bf7268a95bf5081b65826040516107c7919061275d565b60405180910390a250565b6060806060806060600060045490506000805b82811015610838576001600082815260200190815260200160002060040160009054906101000a900460ff1615610825578180610821906129e0565b9250505b8080610830906129e0565b9150506107e5565b508067ffffffffffffffff811115610879577f4e487b7100000000000000000000000000000000000000000000000000000000600052604160045260246000fd5b6040519080825280602002602001820160405280156108a75781602001602082028036833780820191505090505b5096508067ffffffffffffffff8111156108ea577f4e487b7100000000000000000000000000000000000000000000000000000000600052604160045260246000fd5b60405190808252806020026020018201604052801561091d57816020015b60608152602001906001900390816109085790505b5095508067ffffffffffffffff811115610960577f4e487b7100000000000000000000000000000000000000000000000000000000600052604160045260246000fd5b60405190808252806020026020018201604052801561098e5781602001602082028036833780820191505090505b5094508067ffffffffffffffff8111156109d1577f4e487b7100000000000000000000000000000000000000000000000000000000600052604160045260246000fd5b6040519080825280602002602001820160405280156109ff5781602001602082028036833780820191505090505b5093508067ffffffffffffffff811115610a42577f4e487b7100000000000000000000000000000000000000000000000000000000600052604160045260246000fd5b604051908082528060200260200182016040528015610a705781602001602082028036833780820191505090505b5092506000805b83811015610cc55760006001600083815260200190815260200160002090508060040160009054906101000a900460ff1615610cb157818a8481518110610ae7577f4e487b7100000000000000000000000000000000000000000000000000000000600052603260045260246000fd5b602002602001018181525050806000018054610b02906129ae565b80601f0160208091040260200160405190810160405280929190818152602001828054610b2e906129ae565b8015610b7b5780601f10610b5057610100808354040283529160200191610b7b565b820191906000526020600020905b815481529060010190602001808311610b5e57829003601f168201915b5050505050898481518110610bb9577f4e487b7100000000000000000000000000000000000000000000000000000000600052603260045260246000fd5b60200260200101819052508060010154888481518110610c02577f4e487b7100000000000000000000000000000000000000000000000000000000600052603260045260246000fd5b6020026020010181815250508060020154878481518110610c4c577f4e487b7100000000000000000000000000000000000000000000000000000000600052603260045260246000fd5b6020026020010181815250508060030154868481518110610c96577f4e487b7100000000000000000000000000000000000000000000000000000000600052603260045260246000fd5b6020026020010181815250508280610cad906129e0565b9350505b508080610cbd906129e0565b915050610a77565b505050509091929394565b60036020528060005260406000206000915054906101000a900460ff1681565b600060149054906101000a900460ff1681565b60008060008060009054906101000a900473ffffffffffffffffffffffffffffffffffffffff1673ffffffffffffffffffffffffffffffffffffffff163373ffffffffffffffffffffffffffffffffffffffff1614610d97576040517f08c379a0000000000000000000000000000000000000000000000000000000008152600401610d8e906126bd565b60405180910390fd5b6001600086815260200190815260200160002060040160009054906101000a900460ff16610dfa576040517f08c379a0000000000000000000000000000000000000000000000000000000008152600401610df1906126dd565b60405180910390fd5b60026000868152602001908152602001600020805490508410610e52576040517f08c379a0000000000000000000000000000000000000000000000000000000008152600401610e499061267d565b60405180910390fd5b6000600260008781526020019081526020016000208581548110610e9f577f4e487b7100000000000000000000000000000000000000000000000000000000600052603260045260246000fd5b906000526020600020906003020190508060000160009054906101000a900473ffffffffffffffffffffffffffffffffffffffff1681600101548260020154935093509350509250925092565b60045481565b600060149054906101000a900460ff1615610f42576040517f08c379a0000000000000000000000000000000000000000000000000000000008152600401610f399061271d565b60405180910390fd5b60006001600084815260200190815260200160002090508060040160009054906101000a900460ff16610faa576040517f08c379a0000000000000000000000000000000000000000000000000000000008152600401610fa1906126dd565b60405180910390fd5b8181600101541015610ff1576040517f08c379a0000000000000000000000000000000000000000000000000000000008152600401610fe89061269d565b60405180910390fd5b60008282600201546110039190612896565b9050803414611047576040517f08c379a000000000000000000000000000000000000000000000000000000000815260040161103e9061265d565b60405180910390fd5b8282600101600082825461105b91906128f0565b925050819055506002600085815260200190815260200160002060405180606001604052803373ffffffffffffffffffffffffffffffffffffffff16815260200185815260200142815250908060018154018082558091505060019003906000526020600020906003020160009091909190915060008201518160000160006101000a81548173ffffffffffffffffffffffffffffffffffffffff021916908373ffffffffffffffffffffffffffffffffffffffff16021790555060208201518160010155604082015181600201555050837f78a0660bbda86d17037943644187f6f1f73f2f20a3240bf4cf4a56c2a96bcf84338560405161115e9291906124d2565b60405180910390a281600301548260010154116111b857837f9aae5a64ed48e3ae16799f3439861aee6638c7ddb7e397d516d62bdda850a4f2836001015484600301546040516111af929190612778565b60405180910390a25b50505050565b60008054906101000a900473ffffffffffffffffffffffffffffffffffffffff1673ffffffffffffffffffffffffffffffffffffffff163373ffffffffffffffffffffffffffffffffffffffff161461124c576040517f08c379a0000000000000000000000000000000000000000000000000000000008152600401611243906126bd565b60405180910390fd5b600060149054906101000a900460ff161561129c576040517f08c379a00000000000000000000000000000000000000000000000000000000081526004016112939061271d565b60405180910390fd5b6001600082815260200190815260200160002060040160009054906101000a900460ff166112ff576040517f08c379a00000000000000000000000000000000000000000000000000000000081526004016112f6906126dd565b60405180910390fd5b60016000828152602001908152602001600020600080820160006113239190611d8c565b6001820160009055600282016000905560038201600090556004820160006101000a81549060ff021916905550506002600082815260200190815260200160002060006113709190611dcc565b807fa54eda4149a0fb9258911733973ecf1f6762357ed371fc6d1e63123bbce23bed60405160405180910390a250565b60008054906101000a900473ffffffffffffffffffffffffffffffffffffffff1673ffffffffffffffffffffffffffffffffffffffff163373ffffffffffffffffffffffffffffffffffffffff161461142e576040517f08c379a0000000000000000000000000000000000000000000000000000000008152600401611425906126bd565b60405180910390fd5b600060149054906101000a900460ff161561147e576040517f08c379a00000000000000000000000000000000000000000000000000000000081526004016114759061271d565b60405180910390fd5b6001600083815260200190815260200160002060040160009054906101000a900460ff166114e1576040517f08c379a00000000000000000000000000000000000000000000000000000000081526004016114d8906126dd565b60405180910390fd5b806001600084815260200190815260200160002060020181905550817f945c1c4e99aa89f648fbfe3df471b916f719e16d960fcec0737d4d56bd6968388260405161152c919061275d565b60405180910390a25050565b60008054906101000a900473ffffffffffffffffffffffffffffffffffffffff1681565b600060026000838152602001908152602001600020805490509050919050565b600160205280600052604060002060009150905080600001805461159f906129ae565b80601f01602080910402602001604051908101604052809291908181526020018280546115cb906129ae565b80156116185780601f106115ed57610100808354040283529160200191611618565b820191906000526020600020905b8154815290600101906020018083116115fb57829003601f168201915b5050505050908060010154908060020154908060030154908060040160009054906101000a900460ff16905085565b60008054906101000a900473ffffffffffffffffffffffffffffffffffffffff1673ffffffffffffffffffffffffffffffffffffffff163373ffffffffffffffffffffffffffffffffffffffff16146116d5576040517f08c379a00000000000000000000000000000000000000000000000000000000081526004016116cc906126bd565b60405180910390fd5b600060149054906101000a900460ff1615611725576040517f08c379a000000000000000000000000000000000000000000000000000000000815260040161171c9061271d565b60405180910390fd5b6001600083815260200190815260200160002060040160009054906101000a900460ff16611788576040517f08c379a000000000000000000000000000000000000000000000000000000000815260040161177f906126dd565b60405180910390fd5b806001600084815260200190815260200160002060030181905550817fb06a54caabe58475c86c2bf9df3f2f06dd1213e9e10659c293117fe4893b274b826040516117d3919061275d565b60405180910390a25050565b60008054906101000a900473ffffffffffffffffffffffffffffffffffffffff1673ffffffffffffffffffffffffffffffffffffffff163373ffffffffffffffffffffffffffffffffffffffff161461186d576040517f08c379a0000000000000000000000000000000000000000000000000000000008152600401611864906126bd565b60405180910390fd5b600060149054906101000a900460ff16156118bd576040517f08c379a00000000000000000000000000000000000000000000000000000000081526004016118b49061271d565b60405180910390fd5b6040518060a0016040528086868080601f016020809104026020016040519081016040528093929190818152602001838380828437600081840152601f19601f82011690508083019250505050505050815260200184815260200183815260200182815260200160011515815250600160006004548152602001908152602001600020600082015181600001908051906020019061195c929190611df0565b5060208201518160010155604082015181600201556060820151816003015560808201518160040160006101000a81548160ff0219169083151502179055509050506004547f665e452eb624a7f9bf54abd5d404d4f4da7360a1e40698893fe2cc447a51af9c868686866040516119d694939291906125c3565b60405180910390a2600460008154809291906119f1906129e0565b91905055505050505050565b60008054906101000a900473ffffffffffffffffffffffffffffffffffffffff1673ffffffffffffffffffffffffffffffffffffffff163373ffffffffffffffffffffffffffffffffffffffff161480611aa05750600360003373ffffffffffffffffffffffffffffffffffffffff1673ffffffffffffffffffffffffffffffffffffffff16815260200190815260200160002060009054906101000a900460ff165b611adf576040517f08c379a0000000000000000000000000000000000000000000000000000000008152600401611ad69061273d565b60405180910390fd5b600060149054906101000a900460ff1615611b2f576040517f08c379a0000000000000000000000000000000000000000000000000000000008152600401611b269061271d565b60405180910390fd5b6001600083815260200190815260200160002060040160009054906101000a900460ff16611b92576040517f08c379a0000000000000000000000000000000000000000000000000000000008152600401611b89906126dd565b60405180910390fd5b80600160008481526020019081526020016000206001016000828254611bb89190612840565b92505081905550817febcfd4ce21b6aefd071d3e0f4bfa57e491b5308a1ffb5a3a8e4805e23f00b8d76001600085815260200190815260200160002060010154604051611c05919061275d565b60405180910390a25050565b60008054906101000a900473ffffffffffffffffffffffffffffffffffffffff1673ffffffffffffffffffffffffffffffffffffffff163373ffffffffffffffffffffffffffffffffffffffff1614611c9f576040517f08c379a0000000000000000000000000000000000000000000000000000000008152600401611c96906126bd565b60405180910390fd5b80600360008473ffffffffffffffffffffffffffffffffffffffff1673ffffffffffffffffffffffffffffffffffffffff16815260200190815260200160002060006101000a81548160ff0219169083151502179055508015611d44578173ffffffffffffffffffffffffffffffffffffffff167fe347a390ffd00a66c2003c5e078472c4c521081907f100a1cc7fe135560641f760405160405180910390a2611d88565b8173ffffffffffffffffffffffffffffffffffffffff167fbe0c9c04c8b745ee47e5f1102a51b7adffc957970fe9242ff6c0793adc748b1e60405160405180910390a25b5050565b508054611d98906129ae565b6000825580601f10611daa5750611dc9565b601f016020900490600052602060002090810190611dc89190611e76565b5b50565b5080546000825560030290600052602060002090810190611ded9190611e93565b50565b828054611dfc906129ae565b90600052602060002090601f016020900481019282611e1e5760008555611e65565b82601f10611e3757805160ff1916838001178555611e65565b82800160010185558215611e65579182015b82811115611e64578251825591602001919060010190611e49565b5b509050611e729190611e76565b5090565b5b80821115611e8f576000816000905550600101611e77565b5090565b5b80821115611edd57600080820160006101000a81549073ffffffffffffffffffffffffffffffffffffffff02191690556001820160009055600282016000905550600301611e94565b5090565b600081359050611ef081612a98565b92915050565b600081359050611f0581612aaf565b92915050565b60008083601f840112611f1d57600080fd5b8235905067ffffffffffffffff811115611f3657600080fd5b602083019150836001820283011115611f4e57600080fd5b9250929050565b600081359050611f6481612ac6565b92915050565b600060208284031215611f7c57600080fd5b6000611f8a84828501611ee1565b91505092915050565b60008060408385031215611fa657600080fd5b6000611fb485828601611ee1565b9250506020611fc585828601611ef6565b9150509250929050565b600060208284031215611fe157600080fd5b6000611fef84828501611ef6565b91505092915050565b60008060008060006080868803121561201057600080fd5b600086013567ffffffffffffffff81111561202a57600080fd5b61203688828901611f0b565b9550955050602061204988828901611f55565b935050604061205a88828901611f55565b925050606061206b88828901611f55565b9150509295509295909350565b60006020828403121561208a57600080fd5b600061209884828501611f55565b91505092915050565b600080604083850312156120b457600080fd5b60006120c285828601611f55565b92505060206120d385828601611f55565b9150509250929050565b60006120e98383612227565b905092915050565b60006120fd8383612499565b60208301905092915050565b61211281612924565b82525050565b6000612123826127c1565b61212d81856127fc565b93508360208202850161213f856127a1565b8060005b8581101561217b578484038952815161215c85826120dd565b9450612167836127e2565b925060208a01995050600181019050612143565b50829750879550505050505092915050565b6000612198826127cc565b6121a2818561280d565b93506121ad836127b1565b8060005b838110156121de5781516121c588826120f1565b97506121d0836127ef565b9250506001810190506121b1565b5085935050505092915050565b6121f481612936565b82525050565b6000612206838561282f565b935061221383858461296c565b61221c83612a87565b840190509392505050565b6000612232826127d7565b61223c818561281e565b935061224c81856020860161297b565b61225581612a87565b840191505092915050565b600061226b826127d7565b612275818561282f565b935061228581856020860161297b565b61228e81612a87565b840191505092915050565b60006122a660118361282f565b91507f496e636f7272656374207061796d656e740000000000000000000000000000006000830152602082019050919050565b60006122e6600d8361282f565b91507f496e76616c696420696e646578000000000000000000000000000000000000006000830152602082019050919050565b600061232660128361282f565b91507f496e73756666696369656e742073746f636b00000000000000000000000000006000830152602082019050919050565b600061236660098361282f565b91507f4e6f74206f776e657200000000000000000000000000000000000000000000006000830152602082019050919050565b60006123a660138361282f565b91507f4974656d20646f6573206e6f74206578697374000000000000000000000000006000830152602082019050919050565b60006123e660088361282f565b91507f4e6f2066756e64730000000000000000000000000000000000000000000000006000830152602082019050919050565b600061242660128361282f565b91507f436f6e74726163742069732070617573656400000000000000000000000000006000830152602082019050919050565b6000612466600e8361282f565b91507f4e6f7420617574686f72697a65640000000000000000000000000000000000006000830152602082019050919050565b6124a281612962565b82525050565b6124b181612962565b82525050565b60006020820190506124cc6000830184612109565b92915050565b60006040820190506124e76000830185612109565b6124f460208301846124a8565b9392505050565b60006060820190506125106000830186612109565b61251d60208301856124a8565b61252a60408301846124a8565b949350505050565b600060a082019050818103600083015261254c818861218d565b905081810360208301526125608187612118565b90508181036040830152612574818661218d565b90508181036060830152612588818561218d565b9050818103608083015261259c818461218d565b90509695505050505050565b60006020820190506125bd60008301846121eb565b92915050565b600060608201905081810360008301526125de8186886121fa565b90506125ed60208301856124a8565b6125fa60408301846124a8565b95945050505050565b600060a082019050818103600083015261261d8188612260565b905061262c60208301876124a8565b61263960408301866124a8565b61264660608301856124a8565b61265360808301846121eb565b9695505050505050565b6000602082019050818103600083015261267681612299565b9050919050565b60006020820190508181036000830152612696816122d9565b9050919050565b600060208201905081810360008301526126b681612319565b9050919050565b600060208201905081810360008301526126d681612359565b9050919050565b600060208201905081810360008301526126f681612399565b9050919050565b60006020820190508181036000830152612716816123d9565b9050919050565b6000602082019050818103600083015261273681612419565b9050919050565b6000602082019050818103600083015261275681612459565b9050919050565b600060208201905061277260008301846124a8565b92915050565b600060408201905061278d60008301856124a8565b61279a60208301846124a8565b9392505050565b6000819050602082019050919050565b6000819050602082019050919050565b600081519050919050565b600081519050919050565b600081519050919050565b6000602082019050919050565b6000602082019050919050565b600082825260208201905092915050565b600082825260208201905092915050565b600082825260208201905092915050565b600082825260208201905092915050565b600061284b82612962565b915061285683612962565b9250827fffffffffffffffffffffffffffffffffffffffffffffffffffffffffffffffff0382111561288b5761288a612a29565b5b828201905092915050565b60006128a182612962565b91506128ac83612962565b9250817fffffffffffffffffffffffffffffffffffffffffffffffffffffffffffffffff04831182151516156128e5576128e4612a29565b5b828202905092915050565b60006128fb82612962565b915061290683612962565b92508282101561291957612918612a29565b5b828203905092915050565b600061292f82612942565b9050919050565b60008115159050919050565b600073ffffffffffffffffffffffffffffffffffffffff82169050919050565b6000819050919050565b82818337600083830152505050565b60005b8381101561299957808201518184015260208101905061297e565b838111156129a8576000848401525b50505050565b600060028204905060018216806129c657607f821691505b602082108114156129da576129d9612a58565b5b50919050565b60006129eb82612962565b91507fffffffffffffffffffffffffffffffffffffffffffffffffffffffffffffffff821415612a1e57612a1d612a29565b5b600182019050919050565b7f4e487b7100000000000000000000000000000000000000000000000000000000600052601160045260246000fd5b7f4e487b7100000000000000000000000000000000000000000000000000000000600052602260045260246000fd5b6000601f19601f8301169050919050565b612aa181612924565b8114612aac57600080fd5b50565b612ab881612936565b8114612ac357600080fd5b50565b612acf81612962565b8114612ada57600080fd5b5056fea26469706673582212205edde0382763abec95507e77f9085393aaae968c05154ff93521cdb6459f71a064736f6c63430008000033",
  "immutableReferences": {},
  "source": "// SPDX-License-Identifier: MIT\r\npragma solidity ^0.8.0;\r\n\r\n/**\r\n * @title Simple on-chain Inventory with extended features\r\n * @dev Place this file in `contracts/Inventory.sol`\r\n */\r\ncontract Inventory {\r\n    address public owner;\r\n    bool public paused;\r\n\r\n    modifier onlyOwner() {\r\n        require(msg.sender == owner, \"Not owner\");\r\n        _;\r\n    }\r\n    modifier onlyWhenActive() {\r\n        require(!paused, \"Contract is paused\");\r\n        _;\r\n    }\r\n    modifier onlyStaffOrOwner() {\r\n        require(msg.sender == owner || staff[msg.sender], \"Not authorized\");\r\n        _;\r\n    }\r\n\r\n    struct Item {\r\n        string name;\r\n        uint256 stock;\r\n        uint256 price;    // in wei per unit\r\n        uint256 reorderThreshold;\r\n        bool exists;\r\n    }\r\n\r\n    struct Purchase {\r\n        address buyer;\r\n        uint256 quantity;\r\n        uint256 timestamp;\r\n    }\r\n\r\n    mapping(uint256 => Item) public items;\r\n    mapping(uint256 => Purchase[]) private purchaseHistory;\r\n    mapping(address => bool) public staff;\r\n\r\n    uint256 public nextItemId;\r\n\r\n    event ItemAdded(uint256 indexed itemId, string name, uint256 stock, uint256 price);\r\n    event StockUpdated(uint256 indexed itemId, uint256 newStock);\r\n    event PriceUpdated(uint256 indexed itemId, uint256 newPrice);\r\n    event ThresholdUpdated(uint256 indexed itemId, uint256 newThreshold);\r\n    event ItemRemoved(uint256 indexed itemId);\r\n    event ItemPurchased(uint256 indexed itemId, address buyer, uint256 quantity);\r\n    event LowStock(uint256 indexed itemId, uint256 stock, uint256 threshold);\r\n    event Withdrawal(address indexed owner, uint256 amount);\r\n    event Paused(address indexed by);\r\n    event Unpaused(address indexed by);\r\n    event StaffAdded(address indexed account);\r\n    event StaffRemoved(address indexed account);\r\n\r\n    constructor() {\r\n        owner = msg.sender;\r\n        paused = false;\r\n    }\r\n\r\n    function setPaused(bool _paused) external onlyOwner {\r\n        paused = _paused;\r\n        if (_paused) emit Paused(msg.sender);\r\n        else emit Unpaused(msg.sender);\r\n    }\r\n\r\n    function updateStaff(address account, bool isStaff) external onlyOwner {\r\n        staff[account] = isStaff;\r\n        if (isStaff) emit StaffAdded(account);\r\n        else emit StaffRemoved(account);\r\n    }\r\n\r\n    function addItem(\r\n        string calldata name,\r\n        uint256 initialStock,\r\n        uint256 price,\r\n        uint256 reorderThreshold\r\n    ) external onlyOwner onlyWhenActive {\r\n        items[nextItemId] = Item(name, initialStock, price, reorderThreshold, true);\r\n        emit ItemAdded(nextItemId, name, initialStock, price);\r\n        nextItemId++;\r\n    }\r\n\r\n    function restock(uint256 itemId, uint256 amount) external onlyStaffOrOwner onlyWhenActive {\r\n        require(items[itemId].exists, \"Item does not exist\");\r\n        items[itemId].stock += amount;\r\n        emit StockUpdated(itemId, items[itemId].stock);\r\n    }\r\n\r\n    function updatePrice(uint256 itemId, uint256 newPrice) external onlyOwner onlyWhenActive {\r\n        require(items[itemId].exists, \"Item does not exist\");\r\n        items[itemId].price = newPrice;\r\n        emit PriceUpdated(itemId, newPrice);\r\n    }\r\n\r\n    function updateThreshold(uint256 itemId, uint256 newThreshold) external onlyOwner onlyWhenActive {\r\n        require(items[itemId].exists, \"Item does not exist\");\r\n        items[itemId].reorderThreshold = newThreshold;\r\n        emit ThresholdUpdated(itemId, newThreshold);\r\n    }\r\n\r\n    function removeItem(uint256 itemId) external onlyOwner onlyWhenActive {\r\n        require(items[itemId].exists, \"Item does not exist\");\r\n        delete items[itemId];\r\n        delete purchaseHistory[itemId];\r\n        emit ItemRemoved(itemId);\r\n    }\r\n\r\n    function purchase(uint256 itemId, uint256 quantity) external payable onlyWhenActive {\r\n        Item storage it = items[itemId];\r\n        require(it.exists, \"Item does not exist\");\r\n        require(it.stock >= quantity, \"Insufficient stock\");\r\n\r\n        uint256 totalCost = it.price * quantity;\r\n        require(msg.value == totalCost, \"Incorrect payment\");\r\n\r\n        it.stock -= quantity;\r\n        purchaseHistory[itemId].push(Purchase(msg.sender, quantity, block.timestamp));\r\n        emit ItemPurchased(itemId, msg.sender, quantity);\r\n\r\n        if (it.stock <= it.reorderThreshold) {\r\n            emit LowStock(itemId, it.stock, it.reorderThreshold);\r\n        }\r\n    }\r\n\r\n    function withdraw() external onlyOwner {\r\n        uint256 bal = address(this).balance;\r\n        require(bal > 0, \"No funds\");\r\n        payable(owner).transfer(bal);\r\n        emit Withdrawal(owner, bal);\r\n    }\r\n\r\n    function getPurchaseCount(uint256 itemId) external view returns (uint256) {\r\n        return purchaseHistory[itemId].length;\r\n    }\r\n\r\n    function getPurchase(uint256 itemId, uint256 index)\r\n        external\r\n        view\r\n        returns (address buyer, uint256 quantity, uint256 timestamp)\r\n    {\r\n        Purchase storage p = purchaseHistory[itemId][index];\r\n        return (p.buyer, p.quantity, p.timestamp);\r\n    }\r\n\r\n    /// @notice Retrieve all existing items (ids, names, stocks, prices, thresholds)\r\n    function getAllItems()\r\n        external\r\n        view\r\n        returns (\r\n            uint256[] memory ids,\r\n            string[] memory names,\r\n            uint256[] memory stocks,\r\n            uint256[] memory prices,\r\n            uint256[] memory thresholds\r\n        )\r\n    {\r\n        uint total = nextItemId;\r\n        uint count = 0;\r\n        for (uint i = 0; i < total; i++) {\r\n            if (items[i].exists) {\r\n                count++;\r\n            }\r\n        }\r\n\r\n        ids = new uint256[](count);\r\n        names = new string[](count);\r\n        stocks = new uint256[](count);\r\n        prices = new uint256[](count);\r\n        thresholds = new uint256[](count);\r\n\r\n        uint idx = 0;\r\n        for (uint i = 0; i < total; i++) {\r\n            Item storage it = items[i];\r\n            if (it.exists) {\r\n                ids[idx] = i;\r\n                names[idx] = it.name;\r\n                stocks[idx] = it.stock;\r\n                prices[idx] = it.price;\r\n                thresholds[idx] = it.reorderThreshold;\r\n                idx++;\r\n            }\r\n        }\r\n\r\n        return (ids, names, stocks, prices, thresholds);\r\n    }\r\n\r\n        /**\r\n     * @notice Allows the admin to verify a customer's transaction\r\n     * @param itemId ID of the item purchased\r\n     * @param index Index in the purchase history\r\n     * @return buyer Address of the buyer\r\n     * @return quantity Number of items bought\r\n     * @return timestamp Timestamp of purchase\r\n     */\r\n    function verifyTransaction(uint256 itemId, uint256 index)\r\n        external\r\n        view\r\n        onlyOwner\r\n        returns (address buyer, uint256 quantity, uint256 timestamp)\r\n    {\r\n        require(items[itemId].exists, \"Item does not exist\");\r\n        require(index < purchaseHistory[itemId].length, \"Invalid index\");\r\n        Purchase storage p = purchaseHistory[itemId][index];\r\n        return (p.buyer, p.quantity, p.timestamp);\r\n    }\r\n\r\n}",
  "sourcePath": "C:\\DCM\\Inventory\\contracts\\Inventory.sol",
  "compiler": {
    "name": "solc",
    "version": "0.8.0+commit.c7dfd78e.Emscripten.clang"
  },
  "schemaVersion": "3.4.16",
  "updatedAt": "2025-04-23T02:51:28.080Z",
  "networkType": "ethereum",
  "devdoc": {
    "details": "Place this file in `contracts/Inventory.sol`",
    "kind": "dev",
    "methods": {
      "verifyTransaction(uint256,uint256)": {
        "params": {
          "index": "Index in the purchase history",
          "itemId": "ID of the item purchased"
        },
        "returns": {
          "buyer": "Address of the buyer",
          "quantity": "Number of items bought",
          "timestamp": "Timestamp of purchase"
        }
      }
    },
    "title": "Simple on-chain Inventory with extended features",
    "version": 1
  },
  "userdoc": {
    "kind": "user",
    "methods": {
      "getAllItems()": {
        "notice": "Retrieve all existing items (ids, names, stocks, prices, thresholds)"
      },
      "verifyTransaction(uint256,uint256)": {
        "notice": "Allows the admin to verify a customer's transaction"
      }
    },
    "version": 1
  }
}